:100000000C942A000C9447000C9447000C94470071
:100010000C9449000C9447000C9447000C94470042
:100020000C9447000C9447000C9447000C94470034
:100030000C9447000C9447000C9447000C94470024
:100040000C9447000C9447000C9447000C94470014
:100050000C94470011241FBECFE5D8E0DEBFCDBF12
:1000600010E0A0E6B0E0E8E6F1E002C005900D92F5
:10007000A037B107D9F720E0A0E7B0E001C01D929A
:10008000A437B207E1F70E94A3000C94B2000C94CD
:1000900000001F920F920FB60F9211242F933F93DF
:1000A0008F939F93EF93FF931092730010927200BF
:1000B00080E090E0FC01E459FF4F808182BB109208
:1000C00071001092700080E090E030B3FC01E759BD
:1000D000FF4F20813223A1F430B332232313FCCF0E
:1000E0002091720030917300F901EE0FFF1F2E0F67
:1000F0003F1F820F931FFC01E05AFF4F808188BB96
:10010000809170009091710001969093710080939E
:10011000700083309105CCF2809172009091730051
:10012000019690937300809372008330910514F2CE
:10013000FF91EF919F918F913F912F910F900FBE63
:100140000F901F9018958FEF82BB90EE91BB18BA5D
:1001500087BB12BC8FE085BD14BC83EC83BD80E8F7
:0801600089BFFFCFF894FFCF27
:10016800000102040810204080010204EFDFBF00F4
:00000001FF
